{
  "_format": "hh-sol-artifact-1",
  "contractName": "ReferralPortal",
  "sourceName": "contracts/ReferralPortal.sol",
  "abi": [
    {
      "inputs": [
        {
          "internalType": "address",
          "name": "referral",
          "type": "address"
        }
      ],
      "name": "addReferral",
      "outputs": [],
      "stateMutability": "nonpayable",
      "type": "function"
    },
    {
      "inputs": [
        {
          "internalType": "address",
          "name": "referral",
          "type": "address"
        }
      ],
      "name": "getReferrals",
      "outputs": [
        {
          "internalType": "uint256",
          "name": "",
          "type": "uint256"
        }
      ],
      "stateMutability": "view",
      "type": "function"
    }
  ],
  "bytecode": "0x608060405234801561001057600080fd5b506105b1806100206000396000f3fe608060405234801561001057600080fd5b50600436106100365760003560e01c806341a0894d1461003b578063e8aca46a1461006b575b600080fd5b610055600480360381019061005091906103b1565b610087565b60405161006291906104ad565b60405180910390f35b610085600480360381019061008091906103b1565b610153565b005b600061010a6040518060400160405280601f81526020017f257320686173206120746f74616c206f6620256420726566657272616c732100815250836000808673ffffffffffffffffffffffffffffffffffffffff1673ffffffffffffffffffffffffffffffffffffffff16815260200190815260200160002080549050610235565b6000808373ffffffffffffffffffffffffffffffffffffffff1673ffffffffffffffffffffffffffffffffffffffff168152602001908152602001600020805490509050919050565b6000808273ffffffffffffffffffffffffffffffffffffffff1673ffffffffffffffffffffffffffffffffffffffff168152602001908152602001600020339080600181540180825580915050600190039060005260206000200160009091909190916101000a81548173ffffffffffffffffffffffffffffffffffffffff021916908373ffffffffffffffffffffffffffffffffffffffff1602179055506102326040518060400160405280601e81526020017f257320676f742061206e657720726566657272616c2066726f6d20257321000081525082336102d4565b50565b6102cf83838360405160240161024d9392919061046f565b6040516020818303038152906040527f07c81217000000000000000000000000000000000000000000000000000000007bffffffffffffffffffffffffffffffffffffffffffffffffffffffff19166020820180517bffffffffffffffffffffffffffffffffffffffffffffffffffffffff8381831617835250505050610373565b505050565b61036e8383836040516024016102ec93929190610431565b6040516020818303038152906040527ffcec75e0000000000000000000000000000000000000000000000000000000007bffffffffffffffffffffffffffffffffffffffffffffffffffffffff19166020820180517bffffffffffffffffffffffffffffffffffffffffffffffffffffffff8381831617835250505050610373565b505050565b60008151905060006a636f6e736f6c652e6c6f679050602083016000808483855afa5050505050565b6000813590506103ab81610564565b92915050565b6000602082840312156103c357600080fd5b60006103d18482850161039c565b91505092915050565b6103e3816104e4565b82525050565b60006103f4826104c8565b6103fe81856104d3565b935061040e818560208601610520565b61041781610553565b840191505092915050565b61042b81610516565b82525050565b6000606082019050818103600083015261044b81866103e9565b905061045a60208301856103da565b61046760408301846103da565b949350505050565b6000606082019050818103600083015261048981866103e9565b905061049860208301856103da565b6104a56040830184610422565b949350505050565b60006020820190506104c26000830184610422565b92915050565b600081519050919050565b600082825260208201905092915050565b60006104ef826104f6565b9050919050565b600073ffffffffffffffffffffffffffffffffffffffff82169050919050565b6000819050919050565b60005b8381101561053e578082015181840152602081019050610523565b8381111561054d576000848401525b50505050565b6000601f19601f8301169050919050565b61056d816104e4565b811461057857600080fd5b5056fea2646970667358221220874b696cc649329a94a86e3c22344c87f79afeb2984c0d264e188f73230d4c1d64736f6c63430008000033",
  "linkReferences": {},
  "deployedLinkReferences": {}
}