{
  "_format": "hh-sol-artifact-1",
  "contractName": "ReferralPortal",
  "sourceName": "contracts/ReferralPortal.sol",
  "abi": [
    {
      "anonymous": false,
      "inputs": [
        {
          "indexed": true,
          "internalType": "address",
          "name": "from",
          "type": "address"
        },
        {
          "indexed": true,
          "internalType": "address",
          "name": "to",
          "type": "address"
        },
        {
          "indexed": false,
          "internalType": "string",
          "name": "skill",
          "type": "string"
        }
      ],
      "name": "NewReferral",
      "type": "event"
    },
    {
      "inputs": [
        {
          "internalType": "address",
          "name": "_referral",
          "type": "address"
        },
        {
          "internalType": "string",
          "name": "_skill",
          "type": "string"
        }
      ],
      "name": "addReferral",
      "outputs": [],
      "stateMutability": "nonpayable",
      "type": "function"
    },
    {
      "inputs": [
        {
          "internalType": "address",
          "name": "_referral",
          "type": "address"
        }
      ],
      "name": "getReferrals",
      "outputs": [
        {
          "components": [
            {
              "internalType": "address",
              "name": "referrer",
              "type": "address"
            },
            {
              "internalType": "string",
              "name": "skill",
              "type": "string"
            },
            {
              "internalType": "uint256",
              "name": "timestamp",
              "type": "uint256"
            }
          ],
          "internalType": "struct ReferralPortal.Referral[]",
          "name": "",
          "type": "tuple[]"
        }
      ],
      "stateMutability": "view",
      "type": "function"
    }
  ],
  "bytecode": "0x608060405234801561001057600080fd5b50610904806100206000396000f3fe608060405234801561001057600080fd5b50600436106100365760003560e01c806341a0894d1461003b5780634453511d1461006b575b600080fd5b610055600480360381019061005091906104a7565b610087565b604051610062919061068d565b60405180910390f35b610085600480360381019061008091906104d0565b610216565b005b60606000808373ffffffffffffffffffffffffffffffffffffffff1673ffffffffffffffffffffffffffffffffffffffff168152602001908152602001600020805480602002602001604051908101604052809291908181526020016000905b8282101561020b57838290600052602060002090600302016040518060600160405290816000820160009054906101000a900473ffffffffffffffffffffffffffffffffffffffff1673ffffffffffffffffffffffffffffffffffffffff1673ffffffffffffffffffffffffffffffffffffffff16815260200160018201805461017090610816565b80601f016020809104026020016040519081016040528092919081815260200182805461019c90610816565b80156101e95780601f106101be576101008083540402835291602001916101e9565b820191906000526020600020905b8154815290600101906020018083116101cc57829003601f168201915b50505050508152602001600282015481525050815260200190600101906100e7565b505050509050919050565b6000808373ffffffffffffffffffffffffffffffffffffffff1673ffffffffffffffffffffffffffffffffffffffff16815260200190815260200160002060405180606001604052803373ffffffffffffffffffffffffffffffffffffffff16815260200183815260200142815250908060018154018082558091505060019003906000526020600020906003020160009091909190915060008201518160000160006101000a81548173ffffffffffffffffffffffffffffffffffffffff021916908373ffffffffffffffffffffffffffffffffffffffff1602179055506020820151816001019080519060200190610311929190610387565b506040820151816002015550508173ffffffffffffffffffffffffffffffffffffffff163373ffffffffffffffffffffffffffffffffffffffff167fb573ed5619bd9ef42dae458e1c77e7cedbb67f7e19fcc075877006460957347b8360405161037b91906106af565b60405180910390a35050565b82805461039390610816565b90600052602060002090601f0160209004810192826103b557600085556103fc565b82601f106103ce57805160ff19168380011785556103fc565b828001600101855582156103fc579182015b828111156103fb5782518255916020019190600101906103e0565b5b509050610409919061040d565b5090565b5b8082111561042657600081600090555060010161040e565b5090565b600061043d61043884610702565b6106d1565b90508281526020810184848401111561045557600080fd5b6104608482856107d4565b509392505050565b600081359050610477816108b7565b92915050565b600082601f83011261048e57600080fd5b813561049e84826020860161042a565b91505092915050565b6000602082840312156104b957600080fd5b60006104c784828501610468565b91505092915050565b600080604083850312156104e357600080fd5b60006104f185828601610468565b925050602083013567ffffffffffffffff81111561050e57600080fd5b61051a8582860161047d565b9150509250929050565b6000610530838361062e565b905092915050565b61054181610798565b82525050565b600061055282610742565b61055c8185610765565b93508360208202850161056e85610732565b8060005b858110156105aa578484038952815161058b8582610524565b945061059683610758565b925060208a01995050600181019050610572565b50829750879550505050505092915050565b60006105c78261074d565b6105d18185610776565b93506105e18185602086016107e3565b6105ea816108a6565b840191505092915050565b60006106008261074d565b61060a8185610787565b935061061a8185602086016107e3565b610623816108a6565b840191505092915050565b60006060830160008301516106466000860182610538565b506020830151848203602086015261065e82826105bc565b9150506040830151610673604086018261067e565b508091505092915050565b610687816107ca565b82525050565b600060208201905081810360008301526106a78184610547565b905092915050565b600060208201905081810360008301526106c981846105f5565b905092915050565b6000604051905081810181811067ffffffffffffffff821117156106f8576106f7610877565b5b8060405250919050565b600067ffffffffffffffff82111561071d5761071c610877565b5b601f19601f8301169050602081019050919050565b6000819050602082019050919050565b600081519050919050565b600081519050919050565b6000602082019050919050565b600082825260208201905092915050565b600082825260208201905092915050565b600082825260208201905092915050565b60006107a3826107aa565b9050919050565b600073ffffffffffffffffffffffffffffffffffffffff82169050919050565b6000819050919050565b82818337600083830152505050565b60005b838110156108015780820151818401526020810190506107e6565b83811115610810576000848401525b50505050565b6000600282049050600182168061082e57607f821691505b6020821081141561084257610841610848565b5b50919050565b7f4e487b7100000000000000000000000000000000000000000000000000000000600052602260045260246000fd5b7f4e487b7100000000000000000000000000000000000000000000000000000000600052604160045260246000fd5b6000601f19601f8301169050919050565b6108c081610798565b81146108cb57600080fd5b5056fea2646970667358221220adc3e47ea32ada931cb68facb1045211589bc9c145957154baa62e9278bdd91464736f6c63430008000033",
  "linkReferences": {},
  "deployedLinkReferences": {}
}