{
  "_format": "hh-sol-artifact-1",
  "contractName": "ReferralPortal",
  "sourceName": "contracts/ReferralPortal.sol",
  "abi": [
    {
      "inputs": [],
      "stateMutability": "payable",
      "type": "constructor"
    },
    {
      "anonymous": false,
      "inputs": [
        {
          "indexed": true,
          "internalType": "address",
          "name": "from",
          "type": "address"
        },
        {
          "indexed": true,
          "internalType": "address",
          "name": "to",
          "type": "address"
        },
        {
          "indexed": false,
          "internalType": "string",
          "name": "skill",
          "type": "string"
        }
      ],
      "name": "NewReferral",
      "type": "event"
    },
    {
      "inputs": [
        {
          "internalType": "address",
          "name": "_referral",
          "type": "address"
        },
        {
          "internalType": "string",
          "name": "_skill",
          "type": "string"
        }
      ],
      "name": "addReferral",
      "outputs": [],
      "stateMutability": "nonpayable",
      "type": "function"
    },
    {
      "inputs": [
        {
          "internalType": "address",
          "name": "_referral",
          "type": "address"
        }
      ],
      "name": "getReferrals",
      "outputs": [
        {
          "components": [
            {
              "internalType": "address",
              "name": "referrer",
              "type": "address"
            },
            {
              "internalType": "string",
              "name": "skill",
              "type": "string"
            },
            {
              "internalType": "uint256",
              "name": "timestamp",
              "type": "uint256"
            }
          ],
          "internalType": "struct ReferralPortal.Referral[]",
          "name": "",
          "type": "tuple[]"
        }
      ],
      "stateMutability": "view",
      "type": "function"
    },
    {
      "inputs": [
        {
          "internalType": "address",
          "name": "",
          "type": "address"
        }
      ],
      "name": "lastWavedAt",
      "outputs": [
        {
          "internalType": "uint256",
          "name": "",
          "type": "uint256"
        }
      ],
      "stateMutability": "view",
      "type": "function"
    }
  ],
  "bytecode": "0x6080604052606444426200001491906200002c565b62000020919062000093565b60028190555062000129565b6000620000398262000089565b9150620000468362000089565b9250827fffffffffffffffffffffffffffffffffffffffffffffffffffffffffffffffff038211156200007e576200007d620000cb565b5b828201905092915050565b6000819050919050565b6000620000a08262000089565b9150620000ad8362000089565b925082620000c057620000bf620000fa565b5b828206905092915050565b7f4e487b7100000000000000000000000000000000000000000000000000000000600052601160045260246000fd5b7f4e487b7100000000000000000000000000000000000000000000000000000000600052601260045260246000fd5b610d5180620001396000396000f3fe608060405234801561001057600080fd5b50600436106100415760003560e01c806341a0894d146100465780634453511d14610076578063a42a466314610092575b600080fd5b610060600480360381019061005b91906106c5565b6100c2565b60405161006d919061098f565b60405180910390f35b610090600480360381019061008b91906106ee565b610251565b005b6100ac60048036038101906100a791906106c5565b61058d565b6040516100b99190610a13565b60405180910390f35b60606000808373ffffffffffffffffffffffffffffffffffffffff1673ffffffffffffffffffffffffffffffffffffffff168152602001908152602001600020805480602002602001604051908101604052809291908181526020016000905b8282101561024657838290600052602060002090600302016040518060600160405290816000820160009054906101000a900473ffffffffffffffffffffffffffffffffffffffff1673ffffffffffffffffffffffffffffffffffffffff1673ffffffffffffffffffffffffffffffffffffffff1681526020016001820180546101ab90610bd4565b80601f01602080910402602001604051908101604052809291908181526020018280546101d790610bd4565b80156102245780601f106101f957610100808354040283529160200191610224565b820191906000526020600020905b81548152906001019060200180831161020757829003601f168201915b5050505050815260200160028201548152505081526020019060010190610122565b505050509050919050565b6000808373ffffffffffffffffffffffffffffffffffffffff1673ffffffffffffffffffffffffffffffffffffffff16815260200190815260200160002060405180606001604052803373ffffffffffffffffffffffffffffffffffffffff16815260200183815260200142815250908060018154018082558091505060019003906000526020600020906003020160009091909190915060008201518160000160006101000a81548173ffffffffffffffffffffffffffffffffffffffff021916908373ffffffffffffffffffffffffffffffffffffffff160217905550602082015181600101908051906020019061034c9291906105a5565b506040820151816002015550506064600254424461036a9190610b00565b6103749190610b00565b61037e9190610c06565b6002819055504261012c600160003373ffffffffffffffffffffffffffffffffffffffff1673ffffffffffffffffffffffffffffffffffffffff168152602001908152602001600020546103d29190610b00565b10156105245742600160003373ffffffffffffffffffffffffffffffffffffffff1673ffffffffffffffffffffffffffffffffffffffff168152602001908152602001600020819055506014600254116105235760006509184e72a000905047811115610474576040517f08c379a000000000000000000000000000000000000000000000000000000000815260040161046b906109d3565b60405180910390fd5b60003373ffffffffffffffffffffffffffffffffffffffff168260405161049a9061097a565b60006040518083038185875af1925050503d80600081146104d7576040519150601f19603f3d011682016040523d82523d6000602084013e6104dc565b606091505b5050905080610520576040517f08c379a0000000000000000000000000000000000000000000000000000000008152600401610517906109f3565b60405180910390fd5b50505b5b8173ffffffffffffffffffffffffffffffffffffffff163373ffffffffffffffffffffffffffffffffffffffff167fb573ed5619bd9ef42dae458e1c77e7cedbb67f7e19fcc075877006460957347b8360405161058191906109b1565b60405180910390a35050565b60016020528060005260406000206000915090505481565b8280546105b190610bd4565b90600052602060002090601f0160209004810192826105d3576000855561061a565b82601f106105ec57805160ff191683800117855561061a565b8280016001018555821561061a579182015b828111156106195782518255916020019190600101906105fe565b5b509050610627919061062b565b5090565b5b8082111561064457600081600090555060010161062c565b5090565b600061065b61065684610a5f565b610a2e565b90508281526020810184848401111561067357600080fd5b61067e848285610b92565b509392505050565b60008135905061069581610d04565b92915050565b600082601f8301126106ac57600080fd5b81356106bc848260208601610648565b91505092915050565b6000602082840312156106d757600080fd5b60006106e584828501610686565b91505092915050565b6000806040838503121561070157600080fd5b600061070f85828601610686565b925050602083013567ffffffffffffffff81111561072c57600080fd5b6107388582860161069b565b9150509250929050565b600061074e838361090c565b905092915050565b61075f81610b56565b82525050565b600061077082610a9f565b61077a8185610ac2565b93508360208202850161078c85610a8f565b8060005b858110156107c857848403895281516107a98582610742565b94506107b483610ab5565b925060208a01995050600181019050610790565b50829750879550505050505092915050565b60006107e582610aaa565b6107ef8185610ade565b93506107ff818560208601610ba1565b61080881610cf3565b840191505092915050565b600061081e82610aaa565b6108288185610aef565b9350610838818560208601610ba1565b61084181610cf3565b840191505092915050565b6000610859601683610aef565b91507f57616c6c65742066756e6473206465706c657465642e000000000000000000006000830152602082019050919050565b6000610899602183610aef565b91507f4661696c656420746f2073656e64207072697a6520746f20726566657272657260008301527f2e000000000000000000000000000000000000000000000000000000000000006020830152604082019050919050565b60006108ff600083610ad3565b9150600082019050919050565b60006060830160008301516109246000860182610756565b506020830151848203602086015261093c82826107da565b9150506040830151610951604086018261095c565b508091505092915050565b61096581610b88565b82525050565b61097481610b88565b82525050565b6000610985826108f2565b9150819050919050565b600060208201905081810360008301526109a98184610765565b905092915050565b600060208201905081810360008301526109cb8184610813565b905092915050565b600060208201905081810360008301526109ec8161084c565b9050919050565b60006020820190508181036000830152610a0c8161088c565b9050919050565b6000602082019050610a28600083018461096b565b92915050565b6000604051905081810181811067ffffffffffffffff82111715610a5557610a54610cc4565b5b8060405250919050565b600067ffffffffffffffff821115610a7a57610a79610cc4565b5b601f19601f8301169050602081019050919050565b6000819050602082019050919050565b600081519050919050565b600081519050919050565b6000602082019050919050565b600082825260208201905092915050565b600081905092915050565b600082825260208201905092915050565b600082825260208201905092915050565b6000610b0b82610b88565b9150610b1683610b88565b9250827fffffffffffffffffffffffffffffffffffffffffffffffffffffffffffffffff03821115610b4b57610b4a610c37565b5b828201905092915050565b6000610b6182610b68565b9050919050565b600073ffffffffffffffffffffffffffffffffffffffff82169050919050565b6000819050919050565b82818337600083830152505050565b60005b83811015610bbf578082015181840152602081019050610ba4565b83811115610bce576000848401525b50505050565b60006002820490506001821680610bec57607f821691505b60208210811415610c0057610bff610c95565b5b50919050565b6000610c1182610b88565b9150610c1c83610b88565b925082610c2c57610c2b610c66565b5b828206905092915050565b7f4e487b7100000000000000000000000000000000000000000000000000000000600052601160045260246000fd5b7f4e487b7100000000000000000000000000000000000000000000000000000000600052601260045260246000fd5b7f4e487b7100000000000000000000000000000000000000000000000000000000600052602260045260246000fd5b7f4e487b7100000000000000000000000000000000000000000000000000000000600052604160045260246000fd5b6000601f19601f8301169050919050565b610d0d81610b56565b8114610d1857600080fd5b5056fea26469706673582212201a7225592b4e50d9c9d63d668055bfb09a35499abf2b666e34afa0b1919414f664736f6c63430008000033",
  "linkReferences": {},
  "deployedLinkReferences": {}
}