{
  "_format": "hh-sol-artifact-1",
  "contractName": "ReferralPortal",
  "sourceName": "contracts/ReferralPortal.sol",
  "abi": [
    {
      "inputs": [],
      "stateMutability": "payable",
      "type": "constructor"
    },
    {
      "anonymous": false,
      "inputs": [
        {
          "indexed": true,
          "internalType": "address",
          "name": "from",
          "type": "address"
        },
        {
          "indexed": true,
          "internalType": "address",
          "name": "to",
          "type": "address"
        },
        {
          "indexed": false,
          "internalType": "string",
          "name": "skill",
          "type": "string"
        }
      ],
      "name": "NewReferral",
      "type": "event"
    },
    {
      "inputs": [
        {
          "internalType": "address",
          "name": "_referral",
          "type": "address"
        },
        {
          "internalType": "string",
          "name": "_skill",
          "type": "string"
        }
      ],
      "name": "addReferral",
      "outputs": [],
      "stateMutability": "nonpayable",
      "type": "function"
    },
    {
      "inputs": [
        {
          "internalType": "address",
          "name": "_referral",
          "type": "address"
        }
      ],
      "name": "getReferrals",
      "outputs": [
        {
          "components": [
            {
              "internalType": "address",
              "name": "referrer",
              "type": "address"
            },
            {
              "internalType": "string",
              "name": "skill",
              "type": "string"
            },
            {
              "internalType": "uint256",
              "name": "timestamp",
              "type": "uint256"
            }
          ],
          "internalType": "struct ReferralPortal.Referral[]",
          "name": "",
          "type": "tuple[]"
        }
      ],
      "stateMutability": "view",
      "type": "function"
    }
  ],
  "bytecode": "0x6080604052610b20806100136000396000f3fe608060405234801561001057600080fd5b50600436106100365760003560e01c806341a0894d1461003b5780634453511d1461006b575b600080fd5b610055600480360381019061005091906105a3565b610087565b604051610062919061085e565b60405180910390f35b610085600480360381019061008091906105cc565b610216565b005b60606000808373ffffffffffffffffffffffffffffffffffffffff1673ffffffffffffffffffffffffffffffffffffffff168152602001908152602001600020805480602002602001604051908101604052809291908181526020016000905b8282101561020b57838290600052602060002090600302016040518060600160405290816000820160009054906101000a900473ffffffffffffffffffffffffffffffffffffffff1673ffffffffffffffffffffffffffffffffffffffff1673ffffffffffffffffffffffffffffffffffffffff16815260200160018201805461017090610a32565b80601f016020809104026020016040519081016040528092919081815260200182805461019c90610a32565b80156101e95780601f106101be576101008083540402835291602001916101e9565b820191906000526020600020905b8154815290600101906020018083116101cc57829003601f168201915b50505050508152602001600282015481525050815260200190600101906100e7565b505050509050919050565b6000808373ffffffffffffffffffffffffffffffffffffffff1673ffffffffffffffffffffffffffffffffffffffff16815260200190815260200160002060405180606001604052803373ffffffffffffffffffffffffffffffffffffffff16815260200183815260200142815250908060018154018082558091505060019003906000526020600020906003020160009091909190915060008201518160000160006101000a81548173ffffffffffffffffffffffffffffffffffffffff021916908373ffffffffffffffffffffffffffffffffffffffff1602179055506020820151816001019080519060200190610311929190610483565b506040820151816002015550508173ffffffffffffffffffffffffffffffffffffffff163373ffffffffffffffffffffffffffffffffffffffff167fb573ed5619bd9ef42dae458e1c77e7cedbb67f7e19fcc075877006460957347b8360405161037b9190610880565b60405180910390a360006509184e72a0009050478111156103d1576040517f08c379a00000000000000000000000000000000000000000000000000000000081526004016103c8906108a2565b60405180910390fd5b60003373ffffffffffffffffffffffffffffffffffffffff16826040516103f790610849565b60006040518083038185875af1925050503d8060008114610434576040519150601f19603f3d011682016040523d82523d6000602084013e610439565b606091505b505090508061047d576040517f08c379a0000000000000000000000000000000000000000000000000000000008152600401610474906108c2565b60405180910390fd5b50505050565b82805461048f90610a32565b90600052602060002090601f0160209004810192826104b157600085556104f8565b82601f106104ca57805160ff19168380011785556104f8565b828001600101855582156104f8579182015b828111156104f75782518255916020019190600101906104dc565b5b5090506105059190610509565b5090565b5b8082111561052257600081600090555060010161050a565b5090565b600061053961053484610913565b6108e2565b90508281526020810184848401111561055157600080fd5b61055c8482856109f0565b509392505050565b60008135905061057381610ad3565b92915050565b600082601f83011261058a57600080fd5b813561059a848260208601610526565b91505092915050565b6000602082840312156105b557600080fd5b60006105c384828501610564565b91505092915050565b600080604083850312156105df57600080fd5b60006105ed85828601610564565b925050602083013567ffffffffffffffff81111561060a57600080fd5b61061685828601610579565b9150509250929050565b600061062c83836107ea565b905092915050565b61063d816109b4565b82525050565b600061064e82610953565b6106588185610976565b93508360208202850161066a85610943565b8060005b858110156106a657848403895281516106878582610620565b945061069283610969565b925060208a0199505060018101905061066e565b50829750879550505050505092915050565b60006106c38261095e565b6106cd8185610992565b93506106dd8185602086016109ff565b6106e681610ac2565b840191505092915050565b60006106fc8261095e565b61070681856109a3565b93506107168185602086016109ff565b61071f81610ac2565b840191505092915050565b60006107376016836109a3565b91507f57616c6c65742066756e6473206465706c657465642e000000000000000000006000830152602082019050919050565b60006107776021836109a3565b91507f4661696c656420746f2073656e64207072697a6520746f20726566657272657260008301527f2e000000000000000000000000000000000000000000000000000000000000006020830152604082019050919050565b60006107dd600083610987565b9150600082019050919050565b60006060830160008301516108026000860182610634565b506020830151848203602086015261081a82826106b8565b915050604083015161082f604086018261083a565b508091505092915050565b610843816109e6565b82525050565b6000610854826107d0565b9150819050919050565b600060208201905081810360008301526108788184610643565b905092915050565b6000602082019050818103600083015261089a81846106f1565b905092915050565b600060208201905081810360008301526108bb8161072a565b9050919050565b600060208201905081810360008301526108db8161076a565b9050919050565b6000604051905081810181811067ffffffffffffffff8211171561090957610908610a93565b5b8060405250919050565b600067ffffffffffffffff82111561092e5761092d610a93565b5b601f19601f8301169050602081019050919050565b6000819050602082019050919050565b600081519050919050565b600081519050919050565b6000602082019050919050565b600082825260208201905092915050565b600081905092915050565b600082825260208201905092915050565b600082825260208201905092915050565b60006109bf826109c6565b9050919050565b600073ffffffffffffffffffffffffffffffffffffffff82169050919050565b6000819050919050565b82818337600083830152505050565b60005b83811015610a1d578082015181840152602081019050610a02565b83811115610a2c576000848401525b50505050565b60006002820490506001821680610a4a57607f821691505b60208210811415610a5e57610a5d610a64565b5b50919050565b7f4e487b7100000000000000000000000000000000000000000000000000000000600052602260045260246000fd5b7f4e487b7100000000000000000000000000000000000000000000000000000000600052604160045260246000fd5b6000601f19601f8301169050919050565b610adc816109b4565b8114610ae757600080fd5b5056fea264697066735822122032d70dade653c1fe6fe2ea21de4c4fed78045052d4a343b3f5c67c25fc8e30be64736f6c63430008000033",
  "linkReferences": {},
  "deployedLinkReferences": {}
}